{
  "abi": [
    {
      "inputs": [
        {
          "internalType": "address",
          "name": "player",
          "type": "address"
        }
      ],
      "stateMutability": "payable",
      "type": "constructor"
    },
    {
      "inputs": [],
      "name": "collectPenalty",
      "outputs": [],
      "stateMutability": "nonpayable",
      "type": "function"
    },
    {
      "inputs": [],
      "name": "isComplete",
      "outputs": [
        {
          "internalType": "bool",
          "name": "",
          "type": "bool"
        }
      ],
      "stateMutability": "view",
      "type": "function"
    },
    {
      "inputs": [],
      "name": "withdraw",
      "outputs": [],
      "stateMutability": "nonpayable",
      "type": "function"
    }
  ],
  "bytecode": {
    "object": "0x60806040819052600180546001600160a01b031916331790556312cc03004201600355610298388190039081908339818101604052602081101561004257600080fd5b5051670de0b6b3a7640000341461005857600080fd5b600280546001600160a01b039092166001600160a01b03199092169190911790553460005561020c8061008c6000396000f3fe608060405234801561001057600080fd5b50600436106100415760003560e01c806339f22f6b146100465780633ccfd60b14610050578063b2fa1c9e14610058575b600080fd5b61004e610074565b005b61004e610113565b6100606101d1565b604080519115158252519081900360200190f35b6002546001600160a01b0316331461008b57600080fd5b600054479003806100e3576040805162461bcd60e51b815260206004820152601f60248201527f46756e64732063616e6e6f742062652077697468647261776e206561726c7900604482015290519081900360640190fd5b60405133904780156108fc02916000818181858888f1935050505015801561010f573d6000803e3d6000fd5b5050565b6001546001600160a01b0316331461015f576040805162461bcd60e51b815260206004820152600a60248201526937b7363c9037bbb732b960b11b604482015290519081900360640190fd5b6003544210156101a1576040513390600a476009020480156108fc02916000818181858888f1935050505015801561019b573d6000803e3d6000fd5b506101cf565b60405133904780156108fc02916000818181858888f193505050501580156101cd573d6000803e3d6000fd5b505b565b47159056fea2646970667358221220944f231f8dea72d3ffddae4cc51cd0b11a96f6749304b0aa4b21a2e866aa512a64736f6c63430007060033",
    "linkReferences": {}
  },
  "methodIdentifiers": {
    "collectPenalty()": "39f22f6b",
    "isComplete()": "b2fa1c9e",
    "withdraw()": "3ccfd60b"
  },
  "id": 14
}