{
  "abi": [
    {
      "inputs": [],
      "stateMutability": "payable",
      "type": "constructor"
    },
    {
      "inputs": [
        {
          "internalType": "address",
          "name": "victim",
          "type": "address"
        }
      ],
      "name": "self_destroy",
      "outputs": [],
      "stateMutability": "nonpayable",
      "type": "function"
    }
  ],
  "bytecode": {
    "object": "0x608060405260948060116000396000f3fe6080604052348015600f57600080fd5b506004361060285760003560e01c80639a87894214602d575b600080fd5b605060048036036020811015604157600080fd5b50356001600160a01b03166052565b005b806001600160a01b0316fffea264697066735822122007f70fe38bd02ed07fcdf35f46a25c3c75746dd96db3ae17ccc9c56e494b321164736f6c63430007060033",
    "linkReferences": {}
  },
  "methodIdentifiers": {
    "self_destroy(address)": "9a878942"
  },
  "id": 16
}